S00D0000786D6567612E7372656305
S11300000C9402010C9423010C9423010C942301FD
S11300100C9423010C9423010C9423010C942301CC
S11300200C9423010C9423010C9423010C942301BC
S11300300C9423010C9423010C9423010C942301AC
S11300400C9423010C9423010C9423010C9423019C
S11300500C9423010C9423010C9423010C9423018C
S11300600C9423010C9423010C9423010C9423017C
S11300700C9423010C9423010C9423010C9423016C
S11300800C9423010C9423010C94B7010C942301C8
S11300900C9423010C9423010C9423010C9423014C
S11300A00C9423010C9423010C9423010C9423013C
S11300B00C9423010C9423010C9423010C9423012C
S11300C00C9423010C9423010C9423010C9423011C
S11300D00C9423010C9423010C9423010C9423010C
S11300E00C9423010C9423010C9423010C942301FC
S11300F00C9423010C9423010C9423010C942301EC
S11301000C9423010C9423010C9423010C942301DB
S11301100C9423010C9423010C9423010C942301CB
S11301200C9423010C9423010C9423010C942301BB
S11301300C9423010C9423010C9423010C942301AB
S11301400C9423010C9423010C9423010C9423019B
S11301500C9423010C9423010C9423010C9423018B
S11301600C9423010C9423010C9423010C9423017B
S11301700C9423010C9423010C9423010C9423016B
S11301800C9423010C9423010C9423010C9423015B
S11301900C9423010C9423010C9423010C9423014B
S11301A00C9423010C9423010C9423010C9423013B
S11301B00C9423010C9423010C9423010C9423012B
S11301C00C9423010C9423010C9423010C9423011B
S11301D00C9423010C9423010C9423010C943B02F2
S11301E00C9465020C9423010C9423010C942301B8
S11301F00C9423010C9423010C9423010C943202DB
S11302000C941A0211241FBECFEFCDBFDFE5DEBF71
S113021000E00CBF10E2A0E0B0E2E8E9F4E100E0A5
S11302200BBF02C007900D92AE31B107D9F721E29E
S1130230AEE1B0E201C01D92A133B207E1F70E9422
S11302406B010C944A0A0C940000E0E0F6E0808113
S11302508C7F8083E0E0F2E085E081A38DE081A7DC
S113026082E080A380A780E18283818383E084830A
S113027081E0808380E00895882319F0813089F03B
S113028020C0E0E0F2E080A1806880A383A180FF29
S1130290FDCFE0E0F2E024A135A183A1816083A336
S11302A012C0E0E0F2E080A5806880A783A580FF0B
S11302B0FDCFE0E0F2E024A535A583A5816083A706
S11302C002C020E030E0C901992324F4882799274B
S11302D0821B930B0895C0EAD6E0888181608883ED
S11302E0F8940E9425010E94D00160E874E88EE130
S11302F090E00E948F0278948EE090E29F938F9317
S11303000E9452078AE190E20E9466072FE78AE181
S113031096E0215080409040E1F700C000008FEF4C
S113032088830F900F90C0E0D0E00E9416028823CB
S113033029F080E00E943C01EC01F7CFCE010E943D
S1130340E4010E9416028823E1F304C081E00E94C4
S11303503C01EC010E9416028111F8CFCE0190619C
S11303600E94E4010E9416028823E1F3DCCF1F926D
S11303700F920FB60F9211248F938091280684FF59
S113038004C081E080931F2002C010921F2081E0EE
S113039080931E208F910F900FBE0F901F90189581
S11303A0E0E2F6E082E0868391E192838183F8942F
S11303B080E18287848B81E08187E0EAF0E08281BA
S11303C08160828378940895CF93DF93EC0120E1D8
S11303D030E040E050E8E0E2F6E0A2E003C09085BF
S11303E090FD04C090911E209923C9F310921E2001
S11303F090911F20992361F0BE0164237523672B1C
S113040011F0A58305C0A68303C0908590FD04C0A8
S113041090911E209923C9F310921E20569547955A
S113042021503109F9F6DF91CF9108958091280682
S113043081700895CF93C82F80E290E20E946F04E8
S11304408823D1F3CA3029F46DE080E290E20E945F
S1130450C6026C2F80E290E20E94C60280E090E027
S1130460CF91089580E290E20E94B502811521E0C7
S11304709207C1F308951F920F920FB60F921124A1
S11304800BB60F922F933F934F935F936F937F938A
S11304908F939F93AF93BF93EF93FF9380E290E288
S11304A00E94BC04FF91EF91BF91AF919F918F91F6
S11304B07F916F915F914F913F912F910F900BBE60
S11304C00F900FBE0F901F9018951F920F920FB6AA
S11304D00F9211240BB60F922F933F934F935F9378
S11304E06F937F938F939F93AF93BF93EF93FF93F8
S11304F080E290E20E94D804FF91EF91BF91AF9106
S11305009F918F917F916F915F914F913F912F9127
S11305100F900BBE0F900FBE0F901F901895CF92A7
S1130520EF92FF920F931F939B01AC01C12CE12C1E
S113053012ECF12E01E010E060EA7BE080E290E250
S11305400E940004EBE2F1E280E090E28083918378
S113055082839383E0EAF0E08281816082831F9149
S11305600F91FF90EF90CF900895CF93DF93EC011C
S11305700E94A304882329F0CE010E94AE0490E0D7
S113058002C080E091E0DF91CF9108951F93CF9353
S1130590DF93EC01162F0E946F04882321F0612F52
S11305A0CE010E947C04DF91CF911F910895803A7F
S11305B028E0920739F4E0E4F6E088E0818384E0FF
S11305C082830895803B28E0920739F4E0E4F6E062
S11305D080E8818380E482830895803A29E0920749
S11305E039F4E0E6F6E088E0818384E082830895CC
S11305F0803B29E0920739F4E0E6F6E080E8818365
S113060080E482830895803A2AE0920739F4E0E88E
S1130610F6E088E0818384E082830895803B2AE0C9
S1130620920739F4E0E8F6E080E8818380E482838D
S11306300895803A9B4031F4E0EAF6E088E0818353
S113064084E0828308954F925F926F927F928F929B
S11306509F92AF92BF92CF92DF92EF92FF920F934D
S11306601F93CF93DF9349015A012E2D2170C0E1CE
S1130670D0E002C0D595C7952A95E2F700230CF087
S113068042C00E940A066B017C01DD27BE01DD0F1A
S1130690880B990B0E940C062B013C01C501B40187
S11306A00E940A069B01AC01C301B2010E94980694
S11306B09B01AC01C701B6010E94690520E030E04E
S11306C040E85FE30E94FC046B017C011127019563
S11306D00CF4109561E070E002C0660F771F0A9574
S11306E0E2F7072E000C880B990B0E940C069B0165
S11306F0AC01C701B6010E9498060E9405070E943A
S1130700DB05CB013EC00E940A066B017C01BE01E1
S11307107727072E000C880B990B0E940C062B01DF
S11307203C01C501B4010E940A069B01AC01C3014E
S1130730B2010E9498069B01AC01C701B6010E9458
S113074069056B017C0161E070E002C0660F771FF0
S11307500A95E2F7072E000C880B990B0E940C06F1
S11307609B01AC01C701B6010E94690520E030E09D
S113077040E85FE30E94FC040E9405070E94DB0539
S1130780CB01DF91CF911F910F91FF90EF90DF90FC
S1130790CF90BF90AF909F908F907F906F905F901D
S11307A04F9008954F925F926F927F928F929F9293
S11307B0AF92BF92EF920F93CF93DF932B013C0143
S11307C049015A01D02FC9EFED2E0C2FA501940138
S11307D0C301B2010E9423038115904118F0CF5F39
S11307E0C83091F78C2FDF91CF910F91EF90BF908C
S11307F0AF909F908F907F906F905F904F900895EF
S11308002F923F924F925F926F927F928F929F921C
S1130810AF92BF92CF92EF92FF920F931F93CF9319
S1130820DF93EC011B0129013A0147015801EC2C2B
S11308300C2DA5019401C301B2010E94D203182F0B
S1130840082FA5019401C301B2010E942303F82ECD
S1130850092F41E0B101CE010E946104E881F981D0
S113086083E08583E881F981848180618483E881E0
S1130870F981848188608483E881F98183818F7C14
S113088080618383E881F981F682E881F981129598
S1130890107F102B1783888199810E94D702DF91E2
S11308A0CF911F910F91FF90EF90CF90BF90AF9099
S11308B09F908F907F906F905F904F903F902F907C
S11308C00895FC01608371834283E85FFE4F1082C8
S11308D03197108233961082319710820895FC016B
S11308E0E75FFE4F20813196308191E0920F81E0E5
S11308F0931301C080E00895CF93DF93FC01DC01E2
S1130900A75FBE4F9C919F5F11962C9181E092133B
S113091001C080E09217A1F0DF01A75FBE4F9C9158
S1130920EF01C90FD11D6F839F5F9C93A081B1819B
S113093013969C9113979C7F2281922B13969C93E0
S1130940DF91CF910895FC01E95FFE4F208131963C
S1130950908181E0291301C080E00895FC01E85FE3
S1130960FE4F2081DC01A20FB11D13968C91908162
S11309709F5F937090830895FC01E95FFE4F20818F
S11309802F5F237031963081DC01ED91FC9111973A
S11309904081231759F0FC01E95FFE4F3081A30F1A
S11309A0B11D13964C93208381E0089580E008954F
S11309B0CF93DF93FC01E65FFE4F308131972081B6
S11309C0321307C0DC01ED91FC9183818C7F83831A
S11309D010C0FC01E65FFE4F2081DC01A20FB11DB7
S11309E017962C91EC01A881B9812C9380818F5F9B
S11309F08083DF91CF9108955058BB27AA270E9486
S1130A0014050C945E060E94500638F00E945706A6
S1130A1020F039F49F3F19F426F40C944D060EF49B
S1130A20E095E7FB0C944706E92F0E946F0658F304
S1130A30BA17620773078407950720F079F4A6F5BF
S1130A400C9491060EF4E0950B2EBA2FA02D0B01F9
S1130A50B90190010C01CA01A0011124FF27591BFF
S1130A6099F0593F50F4503E68F11A16F040A22F05
S1130A70232F342F4427585FF3CF46953795279576
S1130A80A795F0405395C9F77EF41F16BA0B620B75
S1130A90730B840BBAF09150A1F0FF0FBB1F661FBC
S1130AA0771F881FC2F70EC0BA0F621F731F841FFF
S1130AB048F4879577956795B795F7959E3F08F025
S1130AC0B0CF9395880F08F09927EE0F97958795E7
S1130AD008950E947D050C945E060E94570658F006
S1130AE00E94500640F029F45F3F29F00C94470619
S1130AF051110C9492060C944D060E946F0668F3F3
S1130B009923B1F3552391F3951B550BBB27AA27C2
S1130B1062177307840738F09F5F5F4F220F331FFC
S1130B20441FAA1FA9F335D00E2E3AF0E0E832D0C4
S1130B3091505040E695001CCAF72BD0FE2F29D0C7
S1130B40660F771F881FBB1F261737074807AB0799
S1130B50B0E809F0BB0B802DBF01FF2793585F4F0E
S1130B603AF09E3F510578F00C9447060C94920697
S1130B705F3FE4F3983ED4F3869577956795B795F0
S1130B80F7959F5FC9F7880F911D9695879597F9FB
S1130B900895E1E0660F771F881FBB1F6217730774
S1130BA08407BA0720F0621B730B840BBA0BEE1F89
S1130BB088F7E09508950E94770688F09F5798F08B
S1130BC0B92F9927B751B0F0E1F0660F771F881F4E
S1130BD0991F1AF0BA95C9F714C0B13091F00E9468
S1130BE09106B1E008950C949106672F782F882719
S1130BF0B85F39F0B93FCCF3869577956795B3958F
S1130C00D9F73EF490958095709561957F4F8F4FFD
S1130C109F4F0895E89409C097FB3EF49095809502
S1130C20709561957F4F8F4F9F4F9923A9F0F92FAE
S1130C3096E9BB279395F695879577956795B7952C
S1130C40F111F8CFFAF4BB0F11F460FF1BC06F5F12
S1130C507F4F8F4F9F4F16C0882311F096E911C024
S1130C60772321F09EE8872F762F05C0662371F045
S1130C7096E8862F70E060E02AF09A95660F771F59
S1130C80881FDAF7880F9695879597F9089597F94D
S1130C909F6780E870E060E008959FEF80EC08951E
S1130CA000240A9416161706180609060895002447
S1130CB00A9412161306140605060895092E0394C1
S1130CC0000C11F4882352F0BB0F40F4BF2B11F435
S1130CD060FF04C06F5F7F4F8F4F9F4F089557FD94
S1130CE09058440F551F59F05F3F71F04795880F96
S1130CF097FB991F61F09F3F79F08795089512162D
S1130D0013061406551FF2CF4695F1DF08C01616D8
S1130D1017061806991FF1CF869571056105089489
S1130D200895E894BB2766277727CB0197F90895A0
S1130D300E94AB060C945E060E94500638F00E9496
S1130D40570620F0952311F00C9447060C944D0699
S1130D5011240C9492060E946F0670F3959FC1F3C0
S1130D60950F50E0551F629FF001729FBB27F00D55
S1130D70B11D639FAA27F00DB11DAA1F649F6627AA
S1130D80B00DA11D661F829F2227B00DA11D621FF9
S1130D90739FB00DA11D621F839FA00D611D221FB3
S1130DA0749F3327A00D611D231F849F600D211D97
S1130DB0822F762F6A2F11249F5750409AF0F1F01A
S1130DC088234AF0EE0FFF1FBB1F661F771F881F83
S1130DD091505040A9F79E3F510580F00C9447066E
S1130DE00C9492065F3FE4F3983ED4F3869577958E
S1130DF06795B795F795E7959F5FC1F7FE2B880F29
S1130E00911D9695879597F908950E947706E8F0C5
S1130E109E37E8F09639B8F49E3848F4672F782F57
S1130E208827985FF9CF8695779567959395953937
S1130E30D0F3B62FB1706B0F711D811D20F487950F
S1130E407795679593950C9429070C9444070C9413
S1130E509206882371F4772321F09850872B762FFC
S1130E6007C0662311F499270DC09051862B70E0BA
S1130E7060E02AF09A95660F771F881FDAF7880FCB
S1130E809695879597F908959F3F31F0915020F4F6
S1130E90879577956795B795880F911D9695879552
S1130EA097F90895CF93DF93CDB7DEB7AE014A5FCC
S1130EB05F4FFA0161917191AF0180912D21909161
S1130EC02E210E949607DF91CF9108950F931F93CF
S1130ED0CF93DF93E0912D21F0912E21238121FFE7
S1130EE01BC08C01D0E0C0E0F80181918F016091BA
S1130EF02D2170912E21DB011896ED91FC9119970B
S1130F00882331F01995892B79F3DFEFCFEFECCFFC
S1130F108AE01995892B19F08FEF9FEF02C08D2F6E
S1130F209C2FDF91CF911F910F9108952F923F92A3
S1130F304F925F926F927F928F929F92AF92BF92E5
S1130F40CF92DF92EF92FF920F931F93CF93DF9391
S1130F50CDB7DEB72B97CDBFDEBF6C017B018A0115
S1130F60FC0116821782838181FFCCC1CE010196D8
S1130F703C01F6019381F70193FD859193FF8191E3
S1130F807F01882309F4BAC1853239F493FD859130
S1130F9093FF81917F01853229F4B60190E00E948C
S1130FA0B009E7CF912C212C312CFFE1F315D8F0B7
S1130FB08B3279F038F4803279F08332A1F4232D26
S1130FC020611DC08D3261F0803369F4232D2160CE
S1130FD016C0832D8260382EE32DE4603E2E2AC095
S1130FE0F32DF8601DC037FC2DC020ED280F2A30EA
S1130FF040F08E32B9F436FC81C1232D2064322EA8
S113100019C036FE06C08AE0989E200D1124922E47
S113101011C0EAE02E9E200D1124222EF32DF06241
S11310203F2E08C08C3621F4832D8068382E02C0F0
S1131030883641F4F70193FD859193FF81917F01F7
S11310408111B3CF982F9F7D9554933028F40C5F72
S11310501F4F9FE399830DC0833631F0833771F0BE
S1131060833509F059C021C0F801808189830E5F5E
S11310701F4F88248394912C530113C02801F2E05C
S11310804F0E511CF801A080B18036FE03C0692DBB
S113109070E002C06FEF7FEFC5010E94A5094C010B
S11310A08201F32DFF773F2E16C0280122E0420E65
S11310B0511CF801A080B18036FE03C0692D70E098
S11310C002C06FEF7FEFC5010E949A094C01F32D16
S11310D0F0683F2E820133FC1BC0822D90E08816FD
S11310E09906B0F4B60180E290E00E94B0092A9417
S11310F0F4CFF50137FC859137FE81915F01B6018C
S113110090E00E94B00921102A9421E0821A9108EB
S11311108114910471F7E8C0843611F0893641F5E1
S1131120F80137FE07C060817181828193810C5F71
S11311301F4F08C060817181072E000C880B990B2A
S11311400E5F1F4FF32DFF763F2E97FF09C090953A
S11311508095709561957F4F8F4F9F4FF0683F2E1C
S11311602AE030E0A3010E94EC09882E861845C0CD
S1131170853731F4232D2F7EB22E2AE030E025C0AE
S1131180932D997FB92E8F36C1F018F4883579F0F4
S1131190B5C0803719F0883721F0B0C0E92FE0617D
S11311A0BE2EB4FE0DC0FB2DF460BF2E09C034FE6C
S11311B00AC0292F2660B22E06C028E030E005C000
S11311C020E130E002C020E132E0F801B7FE07C0C0
S11311D060817181828193810C5F1F4F06C06081A1
S11311E0718180E090E00E5F1F4FA3010E94EC0923
S11311F0882E8618FB2DFF773F2E36FE0DC0232D3B
S11312002E7FA22E891458F434FE0BC032FC09C080
S1131210832D8E7EA82E05C0B82CA32C03C0B82C19
S113122001C0B92CA4FE0FC0FE01E80DF11D8081A0
S1131230803321F49A2D997EA92E09C0A2FE06C0FE
S1131240B394B39404C08A2D867809F0B394A3FCB4
S113125011C0A0FE06C0B21488F4280C922C9B186E
S11312600EC0B21460F4B60180E290E00E94B009AE
S1131270B394F7CFB21418F42B1802C0982C212C75
S1131280A4FE10C0B60180E390E00E94B009A2FE63
S113129017C0A1FC03C088E790E002C088E590E095
S11312A0B6010CC08A2D867859F0A1FE02C08BE2EB
S11312B001C080E2A7FC8DE2B60190E00E94B00973
S11312C0891438F4B60180E390E00E94B0099A943E
S11312D0F7CF8A94F301E80DF11D8081B60190E007
S11312E00E94B0098110F5CF222009F442CEB60144
S11312F080E290E00E94B0092A94F6CFF60186813C
S1131300978102C08FEF9FEF2B96CDBFDEBFDF9199
S1131310CF911F910F91FF90EF90DF90CF90BF90EE
S1131320AF909F908F907F906F905F904F903F9081
S11313302F900895FC010590615070400110D8F77A
S1131340809590958E0F9F1F0895FC016150704009
S113135001900110D8F7809590958E0F9F1F0895E6
S11313600F931F93CF93DF93FB01238121FD03C0D0
S11313708FEF9FEF2CC022FF16C046815781248136
S113138035814217530744F4A081B1819D012F5F39
S11313903F4F208331838C93268137812F5F3F4FCA
S11313A02683378314C08B01EC01FB010084F18593
S11313B0E02D1995892BE1F6D80116968D919C9113
S11313C01797019616968D939C931797CE01DF91EC
S11313D0CF911F910F910895FA01AA27283051F156
S11313E0203181F1E8946F936E7F6E5F7F4F8F4F52
S11313F09F4FAF4FB1E03ED0B4E03CD0670F781FB1
S1131400891F9A1FA11D680F791F8A1F911DA11D95
S11314106A0F711D811D911DA11D20D009F46894CE
S11314203F912AE0269F11243019305D3193DEF676
S1131430CF010895462F4770405D4193B3E00FD02C
S1131440C9F7F6CF462F4F70405D4A3318F0495D17
S113145031FD4052419302D0A9F7EACFB4E0A695FA
S11314609795879577956795BA95C9F7009761051C
S1131470710508959B01AC010A2E06945795479572
S113148037952795BA95C9F7620F731F841F951F67
S10B1490A01D0895F894FFCF9C
S113149800000003000000001A02320200001B5B77
S11114A8481B5B324A1B5B334A0068690D0027
S9030000FC
