S01200007765656B32786D6567612E7372656322
S11300000C94FE000C9412010C9412010C94120135
S11300100C9412010C9412010C9412010C94120110
S11300200C9412010C9412010C9412010C94120100
S11300300C9412010C9412010C9412010C941201F0
S11300400C9412010C9412010C9412010C941201E0
S11300500C9412010C9412010C9412010C941201D0
S11300600C9412010C9412010C9412010C941201C0
S11300700C9412010C9412010C9412010C941201B0
S11300800C9412010C9412010C9412010C941201A0
S11300900C9412010C9412010C9412010C94120190
S11300A00C9412010C9412010C9412010C94120180
S11300B00C9412010C9412010C9412010C94120170
S11300C00C9412010C9412010C9412010C94120160
S11300D00C9412010C9412010C9412010C94120150
S11300E00C9412010C9412010C9412010C94120140
S11300F00C9412010C9412010C9412010C94120130
S11301000C9412010C9412010C9412010C9412011F
S11301100C9412010C9412010C9412010C9412010F
S11301200C9412010C9412010C9412010C941201FF
S11301300C9412010C9412010C9412010C941201EF
S11301400C9412010C9412010C9412010C941201DF
S11301500C9412010C9412010C9412010C941201CF
S11301600C9412010C9412010C9412010C941201BF
S11301700C9412010C9412010C9412010C941201AF
S11301800C9412010C9412010C9412010C9412019F
S11301900C9412010C9412010C9412010C9412018F
S11301A00C9412010C9412010C9412010C9412017F
S11301B00C9412010C9412010C9412010C9412016F
S11301C00C9412010C9412010C9412010C9412015F
S11301D00C9412010C9412010C9412010C9412014F
S11301E00C9412010C9412010C9412010C9412013F
S11301F00C9412010C9412010C94120111241FBED0
S1130200CFEFCDBFDFE5DEBF00E00CBF20E2A0E012
S1130210B0E201C01D92A030B207E1F70E941401C0
S11302200C9459010C940000E0E6F6E080818760AC
S113023080838081877F8083E0E8F6E08081887F07
S11302408083A0EAB6E08C9181608C9388E1808BF6
S1130250818B828BE0E6F6E0C0E8D6E0808583FF00
S1130260FDCF98852481892F90E0809590958770A3
S11302709927822B848314968C9114978160149609
S11302808C9314978081886080838481877F8483A2
S113029087E893E10197F1F700C0000014828081A0
S11302A0877F808314961C921497808583FDFDCFED
S10902B0D5CFF894FFCF46
S9030000FC
